{
  "contractName": "Session",
  "abi": [
    {
      "inputs": [
        {
          "internalType": "address",
          "name": "_mainContract",
          "type": "address"
        },
        {
          "internalType": "string",
          "name": "_name",
          "type": "string"
        },
        {
          "internalType": "string",
          "name": "_description",
          "type": "string"
        },
        {
          "internalType": "string",
          "name": "_image",
          "type": "string"
        }
      ],
      "stateMutability": "nonpayable",
      "type": "constructor"
    },
    {
      "inputs": [],
      "name": "description",
      "outputs": [
        {
          "internalType": "string",
          "name": "",
          "type": "string"
        }
      ],
      "stateMutability": "view",
      "type": "function"
    },
    {
      "inputs": [],
      "name": "finalPrice",
      "outputs": [
        {
          "internalType": "uint256",
          "name": "",
          "type": "uint256"
        }
      ],
      "stateMutability": "view",
      "type": "function"
    },
    {
      "inputs": [
        {
          "internalType": "uint256",
          "name": "",
          "type": "uint256"
        }
      ],
      "name": "iParticipants",
      "outputs": [
        {
          "internalType": "address",
          "name": "",
          "type": "address"
        }
      ],
      "stateMutability": "view",
      "type": "function"
    },
    {
      "inputs": [],
      "name": "image",
      "outputs": [
        {
          "internalType": "string",
          "name": "",
          "type": "string"
        }
      ],
      "stateMutability": "view",
      "type": "function"
    },
    {
      "inputs": [],
      "name": "mainContract",
      "outputs": [
        {
          "internalType": "address",
          "name": "",
          "type": "address"
        }
      ],
      "stateMutability": "view",
      "type": "function"
    },
    {
      "inputs": [],
      "name": "name",
      "outputs": [
        {
          "internalType": "string",
          "name": "",
          "type": "string"
        }
      ],
      "stateMutability": "view",
      "type": "function"
    },
    {
      "inputs": [
        {
          "internalType": "address",
          "name": "",
          "type": "address"
        }
      ],
      "name": "participants",
      "outputs": [
        {
          "internalType": "address",
          "name": "account",
          "type": "address"
        },
        {
          "internalType": "uint256",
          "name": "price",
          "type": "uint256"
        },
        {
          "internalType": "uint256",
          "name": "deviation",
          "type": "uint256"
        }
      ],
      "stateMutability": "view",
      "type": "function"
    },
    {
      "inputs": [],
      "name": "proposedPrice",
      "outputs": [
        {
          "internalType": "uint256",
          "name": "",
          "type": "uint256"
        }
      ],
      "stateMutability": "view",
      "type": "function"
    },
    {
      "inputs": [],
      "name": "status",
      "outputs": [
        {
          "internalType": "enum Session.State",
          "name": "",
          "type": "uint8"
        }
      ],
      "stateMutability": "view",
      "type": "function"
    },
    {
      "inputs": [],
      "name": "startSession",
      "outputs": [],
      "stateMutability": "nonpayable",
      "type": "function"
    },
    {
      "inputs": [],
      "name": "stopSession",
      "outputs": [],
      "stateMutability": "nonpayable",
      "type": "function"
    },
    {
      "inputs": [
        {
          "internalType": "uint256",
          "name": "_price",
          "type": "uint256"
        }
      ],
      "name": "pricingSession",
      "outputs": [],
      "stateMutability": "nonpayable",
      "type": "function"
    },
    {
      "inputs": [
        {
          "internalType": "uint256",
          "name": "_finalprice",
          "type": "uint256"
        }
      ],
      "name": "closeSession",
      "outputs": [],
      "stateMutability": "nonpayable",
      "type": "function"
    }
  ],
  "bytecode": "0x60806040523480156200001157600080fd5b5060405162002031380380620020318339818101604052810190620000379190620004de565b836000806101000a81548173ffffffffffffffffffffffffffffffffffffffff021916908373ffffffffffffffffffffffffffffffffffffffff16021790555083600160006101000a81548173ffffffffffffffffffffffffffffffffffffffff021916908373ffffffffffffffffffffffffffffffffffffffff160217905550600160009054906101000a900473ffffffffffffffffffffffffffffffffffffffff1673ffffffffffffffffffffffffffffffffffffffff16636e9960c36040518163ffffffff1660e01b8152600401602060405180830381865afa15801562000126573d6000803e3d6000fd5b505050506040513d601f19601f820116820180604052508101906200014c9190620005ad565b600260006101000a81548173ffffffffffffffffffffffffffffffffffffffff021916908373ffffffffffffffffffffffffffffffffffffffff160217905550600260009054906101000a900473ffffffffffffffffffffffffffffffffffffffff1673ffffffffffffffffffffffffffffffffffffffff163373ffffffffffffffffffffffffffffffffffffffff1614620001e757600080fd5b8260039081620001f891906200082a565b5081600490816200020a91906200082a565b5080600590816200021c91906200082a565b506000600a60006101000a81548160ff0219169083600381111562000246576200024562000911565b5b0217905550600160009054906101000a900473ffffffffffffffffffffffffffffffffffffffff1673ffffffffffffffffffffffffffffffffffffffff1663f390dd86306040518263ffffffff1660e01b8152600401620002a8919062000951565b600060405180830381600087803b158015620002c357600080fd5b505af1158015620002d8573d6000803e3d6000fd5b50505050505050506200096e565b6000604051905090565b600080fd5b600080fd5b600073ffffffffffffffffffffffffffffffffffffffff82169050919050565b60006200032782620002fa565b9050919050565b62000339816200031a565b81146200034557600080fd5b50565b60008151905062000359816200032e565b92915050565b600080fd5b600080fd5b6000601f19601f8301169050919050565b7f4e487b7100000000000000000000000000000000000000000000000000000000600052604160045260246000fd5b620003b48262000369565b810181811067ffffffffffffffff82111715620003d657620003d56200037a565b5b80604052505050565b6000620003eb620002e6565b9050620003f98282620003a9565b919050565b600067ffffffffffffffff8211156200041c576200041b6200037a565b5b620004278262000369565b9050602081019050919050565b60005b838110156200045457808201518184015260208101905062000437565b60008484015250505050565b6000620004776200047184620003fe565b620003df565b90508281526020810184848401111562000496576200049562000364565b5b620004a384828562000434565b509392505050565b600082601f830112620004c357620004c26200035f565b5b8151620004d584826020860162000460565b91505092915050565b60008060008060808587031215620004fb57620004fa620002f0565b5b60006200050b8782880162000348565b945050602085015167ffffffffffffffff8111156200052f576200052e620002f5565b5b6200053d87828801620004ab565b935050604085015167ffffffffffffffff811115620005615762000560620002f5565b5b6200056f87828801620004ab565b925050606085015167ffffffffffffffff811115620005935762000592620002f5565b5b620005a187828801620004ab565b91505092959194509250565b600060208284031215620005c657620005c5620002f0565b5b6000620005d68482850162000348565b91505092915050565b600081519050919050565b7f4e487b7100000000000000000000000000000000000000000000000000000000600052602260045260246000fd5b600060028204905060018216806200063257607f821691505b602082108103620006485762000647620005ea565b5b50919050565b60008190508160005260206000209050919050565b60006020601f8301049050919050565b600082821b905092915050565b600060088302620006b27fffffffffffffffffffffffffffffffffffffffffffffffffffffffffffffffff8262000673565b620006be868362000673565b95508019841693508086168417925050509392505050565b6000819050919050565b6000819050919050565b60006200070b62000705620006ff84620006d6565b620006e0565b620006d6565b9050919050565b6000819050919050565b6200072783620006ea565b6200073f620007368262000712565b84845462000680565b825550505050565b600090565b6200075662000747565b620007638184846200071c565b505050565b5b818110156200078b576200077f6000826200074c565b60018101905062000769565b5050565b601f821115620007da57620007a4816200064e565b620007af8462000663565b81016020851015620007bf578190505b620007d7620007ce8562000663565b83018262000768565b50505b505050565b600082821c905092915050565b6000620007ff60001984600802620007df565b1980831691505092915050565b60006200081a8383620007ec565b9150826002028217905092915050565b6200083582620005df565b67ffffffffffffffff8111156200085157620008506200037a565b5b6200085d825462000619565b6200086a8282856200078f565b600060209050601f831160018114620008a257600084156200088d578287015190505b6200089985826200080c565b86555062000909565b601f198416620008b2866200064e565b60005b82811015620008dc57848901518255600182019150602085019450602081019050620008b5565b86831015620008fc5784890151620008f8601f891682620007ec565b8355505b6001600288020188555050505b505050505050565b7f4e487b7100000000000000000000000000000000000000000000000000000000600052602160045260246000fd5b6200094b816200031a565b82525050565b600060208201905062000968600083018462000940565b92915050565b6116b3806200097e6000396000f3fe608060405234801561001057600080fd5b50600436106100cf5760003560e01c8063a3bfdf471161008c578063d270e7ab11610066578063d270e7ab146101f0578063e3635bfd1461020e578063f3ccaac01461022c578063fe0ae1651461024a576100cf565b8063a3bfdf47146101ac578063a6b513ee146101c8578063cbd8c613146101e6576100cf565b806306fdde03146100d457806309e69ede146100f2578063200d2ed214610124578063546905e3146101425780637284e4161461015e578063a3b9c9e51461017c575b600080fd5b6100dc610254565b6040516100e9919061118e565b60405180910390f35b61010c60048036038101906101079190611213565b6102e2565b60405161011b93929190611268565b60405180910390f35b61012c61032c565b6040516101399190611316565b60405180910390f35b61015c6004803603810190610157919061135d565b61033f565b005b610166610679565b604051610173919061118e565b60405180910390f35b6101966004803603810190610191919061135d565b610707565b6040516101a3919061138a565b60405180910390f35b6101c660048036038101906101c1919061135d565b610746565b005b6101d0610878565b6040516101dd91906113a5565b60405180910390f35b6101ee61087e565b005b6101f8610947565b604051610205919061138a565b60405180910390f35b61021661096b565b60405161022391906113a5565b60405180910390f35b610234610971565b604051610241919061118e565b60405180910390f35b6102526109ff565b005b60038054610261906113ef565b80601f016020809104026020016040519081016040528092919081815260200182805461028d906113ef565b80156102da5780601f106102af576101008083540402835291602001916102da565b820191906000526020600020905b8154815290600101906020018083116102bd57829003601f168201915b505050505081565b60076020528060005260406000206000915090508060000160009054906101000a900473ffffffffffffffffffffffffffffffffffffffff16908060010154908060020154905083565b600a60009054906101000a900460ff1681565b6000600160009054906101000a900473ffffffffffffffffffffffffffffffffffffffff1673ffffffffffffffffffffffffffffffffffffffff1663fbcbc0f1336040518263ffffffff1660e01b815260040161039c919061138a565b602060405180830381865afa1580156103b9573d6000803e3d6000fd5b505050506040513d601f19601f820116820180604052508101906103dd9190611435565b9050600073ffffffffffffffffffffffffffffffffffffffff168173ffffffffffffffffffffffffffffffffffffffff160361041857600080fd5b600280600381111561042d5761042c61129f565b5b600a60009054906101000a900460ff16600381111561044f5761044e61129f565b5b1461045957600080fd5b6000831161046657600080fd5b600073ffffffffffffffffffffffffffffffffffffffff16600760003373ffffffffffffffffffffffffffffffffffffffff1673ffffffffffffffffffffffffffffffffffffffff16815260200190815260200160002060000160009054906101000a900473ffffffffffffffffffffffffffffffffffffffff1673ffffffffffffffffffffffffffffffffffffffff160361062c5733600760003373ffffffffffffffffffffffffffffffffffffffff1673ffffffffffffffffffffffffffffffffffffffff16815260200190815260200160002060000160006101000a81548173ffffffffffffffffffffffffffffffffffffffff021916908373ffffffffffffffffffffffffffffffffffffffff16021790555082600760003373ffffffffffffffffffffffffffffffffffffffff1673ffffffffffffffffffffffffffffffffffffffff168152602001908152602001600020600101819055506006339080600181540180825580915050600190039060005260206000200160009091909190916101000a81548173ffffffffffffffffffffffffffffffffffffffff021916908373ffffffffffffffffffffffffffffffffffffffff160217905550610674565b82600760003373ffffffffffffffffffffffffffffffffffffffff1673ffffffffffffffffffffffffffffffffffffffff168152602001908152602001600020600101819055505b505050565b60048054610686906113ef565b80601f01602080910402602001604051908101604052809291908181526020018280546106b2906113ef565b80156106ff5780601f106106d4576101008083540402835291602001916106ff565b820191906000526020600020905b8154815290600101906020018083116106e257829003601f168201915b505050505081565b6006818154811061071757600080fd5b906000526020600020016000915054906101000a900473ffffffffffffffffffffffffffffffffffffffff1681565b600260009054906101000a900473ffffffffffffffffffffffffffffffffffffffff1673ffffffffffffffffffffffffffffffffffffffff163373ffffffffffffffffffffffffffffffffffffffff16146107a057600080fd5b600260038111156107b4576107b361129f565b5b600a60009054906101000a900460ff1660038111156107d6576107d561129f565b5b14806108155750600160038111156107f1576107f061129f565b5b600a60009054906101000a900460ff1660038111156108135761081261129f565b5b145b61081e57600080fd5b6000811161082b57600080fd5b806009819055506003600a60006101000a81548160ff021916908360038111156108585761085761129f565b5b0217905550610865610b04565b61086d610b6a565b610875610cd4565b50565b60095481565b600260009054906101000a900473ffffffffffffffffffffffffffffffffffffffff1673ffffffffffffffffffffffffffffffffffffffff163373ffffffffffffffffffffffffffffffffffffffff16146108d857600080fd5b60028060038111156108ed576108ec61129f565b5b600a60009054906101000a900460ff16600381111561090f5761090e61129f565b5b1461091957600080fd5b6001600a60006101000a81548160ff0219169083600381111561093f5761093e61129f565b5b021790555050565b60008054906101000a900473ffffffffffffffffffffffffffffffffffffffff1681565b60085481565b6005805461097e906113ef565b80601f01602080910402602001604051908101604052809291908181526020018280546109aa906113ef565b80156109f75780601f106109cc576101008083540402835291602001916109f7565b820191906000526020600020905b8154815290600101906020018083116109da57829003601f168201915b505050505081565b600260009054906101000a900473ffffffffffffffffffffffffffffffffffffffff1673ffffffffffffffffffffffffffffffffffffffff163373ffffffffffffffffffffffffffffffffffffffff1614610a5957600080fd5b60006003811115610a6d57610a6c61129f565b5b600a60009054906101000a900460ff166003811115610a8f57610a8e61129f565b5b1480610ace575060016003811115610aaa57610aa961129f565b5b600a60009054906101000a900460ff166003811115610acc57610acb61129f565b5b145b610ad757600080fd5b6002600a60006101000a81548160ff02191690836003811115610afd57610afc61129f565b5b0217905550565b600060068054905003610b1f57600954600881905550610b68565b6000610b29610e14565b90506000610b35610f8c565b9050806006805490506064610b4a9190611491565b610b5491906114d3565b82610b5f9190611536565b60088190555050505b565b60008060005b600680549050811015610ccf5760068181548110610b9157610b90611567565b5b9060005260206000200160009054906101000a900473ffffffffffffffffffffffffffffffffffffffff169250600760008473ffffffffffffffffffffffffffffffffffffffff1673ffffffffffffffffffffffffffffffffffffffff1681526020019081526020016000206001015491508160095410610c6657610c1b600954836009546110ae565b600760008573ffffffffffffffffffffffffffffffffffffffff1673ffffffffffffffffffffffffffffffffffffffff16815260200190815260200160002060020181905550610cbc565b610c75826009546009546110ae565b600760008573ffffffffffffffffffffffffffffffffffffffff1673ffffffffffffffffffffffffffffffffffffffff168152602001908152602001600020600201819055505b8080610cc790611596565b915050610b70565b505050565b60008060005b600680549050811015610e0f5760068181548110610cfb57610cfa611567565b5b9060005260206000200160009054906101000a900473ffffffffffffffffffffffffffffffffffffffff169250600760008473ffffffffffffffffffffffffffffffffffffffff1673ffffffffffffffffffffffffffffffffffffffff168152602001908152602001600020600201549150600160009054906101000a900473ffffffffffffffffffffffffffffffffffffffff1673ffffffffffffffffffffffffffffffffffffffff166349847c7a84846040518363ffffffff1660e01b8152600401610dca9291906115de565b600060405180830381600087803b158015610de457600080fd5b505af1158015610df8573d6000803e3d6000fd5b505050508080610e0790611596565b915050610cda565b505050565b60008060009050600080600080600090505b600680549050811015610f815760068181548110610e4757610e46611567565b5b9060005260206000200160009054906101000a900473ffffffffffffffffffffffffffffffffffffffff169350600760008573ffffffffffffffffffffffffffffffffffffffff1673ffffffffffffffffffffffffffffffffffffffff168152602001908152602001600020600101549250600160009054906101000a900473ffffffffffffffffffffffffffffffffffffffff1673ffffffffffffffffffffffffffffffffffffffff1663a33a08b9856040518263ffffffff1660e01b8152600401610f14919061138a565b602060405180830381865afa158015610f31573d6000803e3d6000fd5b505050506040513d601f19601f82011682018060405250810190610f55919061161c565b9150610f6183836110dc565b85610f6c9190611649565b94508080610f7990611596565b915050610e26565b508394505050505090565b60008060009050600080600090505b6006805490508110156110a55760068181548110610fbc57610fbb611567565b5b9060005260206000200160009054906101000a900473ffffffffffffffffffffffffffffffffffffffff169150600160009054906101000a900473ffffffffffffffffffffffffffffffffffffffff1673ffffffffffffffffffffffffffffffffffffffff1663a33a08b9836040518263ffffffff1660e01b8152600401611044919061138a565b602060405180830381865afa158015611061573d6000803e3d6000fd5b505050506040513d601f19601f82011682018060405250810190611085919061161c565b836110909190611649565b9250808061109d90611596565b915050610f9b565b50819250505090565b600081606484866110bf91906114d3565b6110c99190611491565b6110d39190611536565b90509392505050565b60008160646110eb91906114d3565b836110f69190611491565b905092915050565b600081519050919050565b600082825260208201905092915050565b60005b8381101561113857808201518184015260208101905061111d565b60008484015250505050565b6000601f19601f8301169050919050565b6000611160826110fe565b61116a8185611109565b935061117a81856020860161111a565b61118381611144565b840191505092915050565b600060208201905081810360008301526111a88184611155565b905092915050565b600080fd5b600073ffffffffffffffffffffffffffffffffffffffff82169050919050565b60006111e0826111b5565b9050919050565b6111f0816111d5565b81146111fb57600080fd5b50565b60008135905061120d816111e7565b92915050565b600060208284031215611229576112286111b0565b5b6000611237848285016111fe565b91505092915050565b611249816111d5565b82525050565b6000819050919050565b6112628161124f565b82525050565b600060608201905061127d6000830186611240565b61128a6020830185611259565b6112976040830184611259565b949350505050565b7f4e487b7100000000000000000000000000000000000000000000000000000000600052602160045260246000fd5b600481106112df576112de61129f565b5b50565b60008190506112f0826112ce565b919050565b6000611300826112e2565b9050919050565b611310816112f5565b82525050565b600060208201905061132b6000830184611307565b92915050565b61133a8161124f565b811461134557600080fd5b50565b60008135905061135781611331565b92915050565b600060208284031215611373576113726111b0565b5b600061138184828501611348565b91505092915050565b600060208201905061139f6000830184611240565b92915050565b60006020820190506113ba6000830184611259565b92915050565b7f4e487b7100000000000000000000000000000000000000000000000000000000600052602260045260246000fd5b6000600282049050600182168061140757607f821691505b60208210810361141a576114196113c0565b5b50919050565b60008151905061142f816111e7565b92915050565b60006020828403121561144b5761144a6111b0565b5b600061145984828501611420565b91505092915050565b7f4e487b7100000000000000000000000000000000000000000000000000000000600052601160045260246000fd5b600061149c8261124f565b91506114a78361124f565b92508282026114b58161124f565b915082820484148315176114cc576114cb611462565b5b5092915050565b60006114de8261124f565b91506114e98361124f565b925082820390508181111561150157611500611462565b5b92915050565b7f4e487b7100000000000000000000000000000000000000000000000000000000600052601260045260246000fd5b60006115418261124f565b915061154c8361124f565b92508261155c5761155b611507565b5b828204905092915050565b7f4e487b7100000000000000000000000000000000000000000000000000000000600052603260045260246000fd5b60006115a18261124f565b91507fffffffffffffffffffffffffffffffffffffffffffffffffffffffffffffffff82036115d3576115d2611462565b5b600182019050919050565b60006040820190506115f36000830185611240565b6116006020830184611259565b9392505050565b60008151905061161681611331565b92915050565b600060208284031215611632576116316111b0565b5b600061164084828501611607565b91505092915050565b60006116548261124f565b915061165f8361124f565b925082820190508082111561167757611676611462565b5b9291505056fea26469706673582212204e27089b59965cff358432c5d688fa853e7747e717cfc067e5a1a3338232941364736f6c63430008120033",
  "immutableReferences": {},
  "source": "// SPDX-License-Identifier: GPL-3.0\n\npragma solidity ^0.8.17;\n\n// Interface of Main contract to call from Session contract\ncontract IMain {\n    /**\n     * @dev Add a Session Contract address into Main Contract. Use to link Session with Main.\n     * @param _session The address of session.\n     */\n    function addSession(address _session) public {}\n\n    /**\n     * @dev Update nSessions and deviation of participant in Main Contract when close session.\n     * @param _participant Address of participant.\n     * @param _deviation Deviation of participant in session.\n     */\n    function updateParticipant(address _participant, uint256 _deviation)\n        public\n    {}\n\n    /**\n     * @dev Get deviation of participant in Main Contract.\n     * @param _participant Address of participant.\n     */\n    function getDeviation(address _participant) public view returns (uint256) {}\n\n    /**\n     * @dev Get account of participant.\n     * @param _participant Address of participant.\n     */\n    function getAccount(address _participant) public view returns (address) {}\n\n    /**\n     * @dev Get address of admin.\n     */\n    function getAdmin() public view returns (address) {}\n}\n\ncontract Session {\n    // Structure to hold details of participant in session\n    struct Participant {\n        address account; // Account of participant\n        uint256 price; // Price product of participant\n        uint256 deviation; // Deviation of participant\n    }\n\n    // Enum state of session\n    enum State {\n        START,\n        STOP,\n        PRICING,\n        CLOSE\n    }\n\n    address public mainContract; // Variable to hold Main Contract Address when create new Session Contract\n    IMain MainContract; // Variable to hold Main Contract instance to call functions from Main\n\n    address admin; // Admin create Main Contract\n    string public name; // Name of product\n    string public description; // Description of product\n    string public image; // A link image of product\n    address[] public iParticipants; // List address of participants join session\n    mapping(address => Participant) public participants; // List info of participants\n    uint256 public proposedPrice; // Proposed Price of product\n    uint256 public finalPrice; // Final Price of product\n    State public status; // State of session\n\n    /**\n     * @dev Check state of session.\n     * @param expected_stats Address of participant.\n     */\n    modifier instate(State expected_stats) {\n        require(status == expected_stats);\n        _;\n    }\n\n    /**\n     * @dev Check only admin can call function.\n     */\n    modifier onlyAdmin() {\n        require(msg.sender == admin);\n        _;\n    }\n\n    /**\n     * @dev Check just participant registered can call function.\n     */\n    modifier onlyParticipant() {\n        address addr = MainContract.getAccount(msg.sender);\n        require(addr != address(0));\n        _;\n    }\n\n    /**\n     * @dev constructor.\n     * @param _name Name of product.\n     * @param _description Description of product.\n     * @param _image Link image of product.\n     */\n    constructor(\n        address _mainContract,\n        string memory _name,\n        string memory _description,\n        string memory _image\n    ) {\n        // Get Main Contract instance\n        mainContract = _mainContract;\n        MainContract = IMain(_mainContract);\n\n        // Get admin from Main Contract\n        admin = MainContract.getAdmin();\n        require(msg.sender == admin);\n\n        // Set info product and state of session\n        name = _name;\n        description = _description;\n        image = _image;\n        status = State.START;\n\n        // Call Main Contract function to link current contract.\n        MainContract.addSession(address(this));\n    }\n\n    /**\n     * @dev Change state of session to start. After that participant can pricing.\n     */\n    function startSession() public onlyAdmin {\n        require(status == State.START || status == State.STOP);\n        status = State.PRICING;\n    }\n\n    /**\n     * @dev Change state of session to stop. After that participant can not pricing , but admin can start session again.\n     */\n    function stopSession() public onlyAdmin instate(State.PRICING) {\n        status = State.STOP;\n    }\n\n    /**\n     * @dev Participant pricing product in session.\n     * @param _price Prire of product from participant.\n     */\n    function pricingSession(uint256 _price)\n        public\n        onlyParticipant\n        instate(State.PRICING)\n    {\n        require(_price > 0); // Price of product > 0\n        if (participants[msg.sender].account == address(0)) {\n            // First time participant join session\n            participants[msg.sender].account = msg.sender;\n            participants[msg.sender].price = _price;\n            iParticipants.push(msg.sender);\n        } else {\n            participants[msg.sender].price = _price;\n        }\n    }\n\n    /**\n     * @dev Change state of session to close. After that caculate proposed price of product,\n     * Caculate deviaton of participants in session,\n     * Update nSessions and deviation of participant in Main Contract.\n     * When closed session participant can not pricing and admin can not start session again.\n     * @param _finalprice Final prire of product from admin.\n     */\n    function closeSession(uint256 _finalprice) public onlyAdmin {\n        require(status == State.PRICING || status == State.STOP);\n        require(_finalprice > 0);\n        finalPrice = _finalprice;\n        status = State.CLOSE;\n        setProposedPrice(); // Caculate proposed price of product.\n        setDeviations(); // Caculate deviaton of participants in session.\n        updateParticipants(); // Update nSessions and deviation of participants in Main Contract.\n    }\n\n    /**\n     * @dev Caculate proposed price of product.\n     */\n    function setProposedPrice() private {\n        if (iParticipants.length == 0) {\n            // When session don't have any participant join.\n            proposedPrice = finalPrice;\n        } else {\n            uint256 valuePDs = sumPDs();\n            uint256 valueDs = sumDeviations();\n            proposedPrice = valuePDs / (100 * iParticipants.length - valueDs);\n        }\n    }\n\n    /**\n     * @dev Caculate deviaton of participants in session.\n     */\n    function setDeviations() private {\n        address addr;\n        uint256 participantPrice;\n        for (uint256 i = 0; i < iParticipants.length; i++) {\n            addr = iParticipants[i];\n            participantPrice = participants[addr].price;\n            if (finalPrice >= participantPrice) {\n                participants[addr].deviation = methodD(\n                    finalPrice,\n                    participantPrice,\n                    finalPrice\n                );\n            } else {\n                participants[addr].deviation = methodD(\n                    participantPrice,\n                    finalPrice,\n                    finalPrice\n                );\n            }\n        }\n    }\n\n    /**\n     * @dev Update nSessions and deviation of participant in Main Contract.\n     */\n    function updateParticipants() private {\n        address addr;\n        uint256 newDeviation;\n        for (uint256 i = 0; i < iParticipants.length; i++) {\n            addr = iParticipants[i];\n            newDeviation = participants[addr].deviation;\n            MainContract.updateParticipant(addr, newDeviation);\n        }\n    }\n\n    function sumDeviations() private view returns (uint256) {\n        uint256 sum = 0;\n        address addrParticipant;\n        for (uint256 i = 0; i < iParticipants.length; i++) {\n            addrParticipant = iParticipants[i];\n            sum += MainContract.getDeviation(addrParticipant);\n        }\n        return sum;\n    }\n\n    function methodPD(uint256 _A, uint256 _B) private pure returns (uint256) {\n        return _A * (100 - _B);\n    }\n\n    function sumPDs() private view returns (uint256) {\n        uint256 sum = 0;\n        address addr;\n        uint256 priceI;\n        uint256 deviationI;\n\n        for (uint256 i = 0; i < iParticipants.length; i++) {\n            addr = iParticipants[i];\n            priceI = participants[addr].price;\n            deviationI = MainContract.getDeviation(addr);\n            sum += methodPD(priceI, deviationI);\n        }\n        return sum;\n    }\n\n    function methodD(\n        uint256 _A,\n        uint256 _B,\n        uint256 _C\n    ) private pure returns (uint256) {\n        return ((_A - _B) * 100) / _C;\n    }\n}\n",
  "sourcePath": "C:\\Users\\John\\Desktop\\BDP305x_FinalProject_nguyenlvFX01383@funix.edu.vn\\FunixPricingChain\\truffle\\contracts\\Session.sol",
  "compiler": {
    "name": "solc",
    "version": "0.8.18+commit.87f61d96.Emscripten.clang"
  },
  "schemaVersion": "3.4.11",
  "updatedAt": "2023-02-13T19:50:57.510Z",
  "devdoc": {
    "kind": "dev",
    "methods": {
      "closeSession(uint256)": {
        "details": "Change state of session to close. After that caculate proposed price of product, Caculate deviaton of participants in session, Update nSessions and deviation of participant in Main Contract. When closed session participant can not pricing and admin can not start session again.",
        "params": {
          "_finalprice": "Final prire of product from admin."
        }
      },
      "constructor": {
        "details": "constructor.",
        "params": {
          "_description": "Description of product.",
          "_image": "Link image of product.",
          "_name": "Name of product."
        }
      },
      "pricingSession(uint256)": {
        "details": "Participant pricing product in session.",
        "params": {
          "_price": "Prire of product from participant."
        }
      },
      "startSession()": {
        "details": "Change state of session to start. After that participant can pricing."
      },
      "stopSession()": {
        "details": "Change state of session to stop. After that participant can not pricing , but admin can start session again."
      }
    },
    "version": 1
  },
  "userdoc": {
    "kind": "user",
    "methods": {},
    "version": 1
  }
}