{
  "contractName": "IMain",
  "abi": [
    {
      "inputs": [
        {
          "internalType": "address",
          "name": "_session",
          "type": "address"
        }
      ],
      "name": "addSession",
      "outputs": [],
      "stateMutability": "nonpayable",
      "type": "function"
    },
    {
      "inputs": [
        {
          "internalType": "address",
          "name": "_participant",
          "type": "address"
        },
        {
          "internalType": "uint256",
          "name": "_deviation",
          "type": "uint256"
        }
      ],
      "name": "updateParticipant",
      "outputs": [],
      "stateMutability": "nonpayable",
      "type": "function"
    },
    {
      "inputs": [
        {
          "internalType": "address",
          "name": "_participant",
          "type": "address"
        }
      ],
      "name": "getDeviation",
      "outputs": [
        {
          "internalType": "uint256",
          "name": "",
          "type": "uint256"
        }
      ],
      "stateMutability": "view",
      "type": "function"
    },
    {
      "inputs": [
        {
          "internalType": "address",
          "name": "_participant",
          "type": "address"
        }
      ],
      "name": "getAccount",
      "outputs": [
        {
          "internalType": "address",
          "name": "",
          "type": "address"
        }
      ],
      "stateMutability": "view",
      "type": "function"
    },
    {
      "inputs": [],
      "name": "getAdmin",
      "outputs": [
        {
          "internalType": "address",
          "name": "",
          "type": "address"
        }
      ],
      "stateMutability": "view",
      "type": "function"
    }
  ],
  "bytecode": "0x608060405234801561001057600080fd5b506102bc806100206000396000f3fe608060405234801561001057600080fd5b50600436106100575760003560e01c806349847c7a1461005c5780636e9960c314610078578063a33a08b914610096578063f390dd86146100c6578063fbcbc0f1146100e2575b600080fd5b610076600480360381019061007191906101c5565b610112565b005b610080610116565b60405161008d9190610214565b60405180910390f35b6100b060048036038101906100ab919061022f565b61011b565b6040516100bd919061026b565b60405180910390f35b6100e060048036038101906100db919061022f565b610122565b005b6100fc60048036038101906100f7919061022f565b610125565b6040516101099190610214565b60405180910390f35b5050565b600090565b6000919050565b50565b6000919050565b600080fd5b600073ffffffffffffffffffffffffffffffffffffffff82169050919050565b600061015c82610131565b9050919050565b61016c81610151565b811461017757600080fd5b50565b60008135905061018981610163565b92915050565b6000819050919050565b6101a28161018f565b81146101ad57600080fd5b50565b6000813590506101bf81610199565b92915050565b600080604083850312156101dc576101db61012c565b5b60006101ea8582860161017a565b92505060206101fb858286016101b0565b9150509250929050565b61020e81610151565b82525050565b60006020820190506102296000830184610205565b92915050565b6000602082840312156102455761024461012c565b5b60006102538482850161017a565b91505092915050565b6102658161018f565b82525050565b6000602082019050610280600083018461025c565b9291505056fea2646970667358221220d8e989910a88eb3bed723433e0e56ebba2f691dc0109826286a5d73f0bc08bbe64736f6c63430008120033",
  "immutableReferences": {},
  "source": "// SPDX-License-Identifier: GPL-3.0\n\npragma solidity ^0.8.17;\n\n// Interface of Main contract to call from Session contract\ncontract IMain {\n    /**\n     * @dev Add a Session Contract address into Main Contract. Use to link Session with Main.\n     * @param _session The address of session.\n     */\n    function addSession(address _session) public {}\n\n    /**\n     * @dev Update nSessions and deviation of participant in Main Contract when close session.\n     * @param _participant Address of participant.\n     * @param _deviation Deviation of participant in session.\n     */\n    function updateParticipant(address _participant, uint256 _deviation)\n        public\n    {}\n\n    /**\n     * @dev Get deviation of participant in Main Contract.\n     * @param _participant Address of participant.\n     */\n    function getDeviation(address _participant) public view returns (uint256) {}\n\n    /**\n     * @dev Get account of participant.\n     * @param _participant Address of participant.\n     */\n    function getAccount(address _participant) public view returns (address) {}\n\n    /**\n     * @dev Get address of admin.\n     */\n    function getAdmin() public view returns (address) {}\n}\n\ncontract Session {\n    // Structure to hold details of participant in session\n    struct Participant {\n        address account; // Account of participant\n        uint256 price; // Price product of participant\n        uint256 deviation; // Deviation of participant\n    }\n\n    // Enum state of session\n    enum State {\n        START,\n        STOP,\n        PRICING,\n        CLOSE\n    }\n\n    address public mainContract; // Variable to hold Main Contract Address when create new Session Contract\n    IMain MainContract; // Variable to hold Main Contract instance to call functions from Main\n\n    address admin; // Admin create Main Contract\n    string public name; // Name of product\n    string public description; // Description of product\n    string public image; // A link image of product\n    address[] public iParticipants; // List address of participants join session\n    mapping(address => Participant) public participants; // List info of participants\n    uint256 public proposedPrice; // Proposed Price of product\n    uint256 public finalPrice; // Final Price of product\n    State public status; // State of session\n\n    /**\n     * @dev Check state of session.\n     * @param expected_stats Address of participant.\n     */\n    modifier instate(State expected_stats) {\n        require(status == expected_stats);\n        _;\n    }\n\n    /**\n     * @dev Check only admin can call function.\n     */\n    modifier onlyAdmin() {\n        require(msg.sender == admin);\n        _;\n    }\n\n    /**\n     * @dev Check just participant registered can call function.\n     */\n    modifier onlyParticipant() {\n        address addr = MainContract.getAccount(msg.sender);\n        require(addr != address(0));\n        _;\n    }\n\n    /**\n     * @dev constructor.\n     * @param _name Name of product.\n     * @param _description Description of product.\n     * @param _image Link image of product.\n     */\n    constructor(\n        address _mainContract,\n        string memory _name,\n        string memory _description,\n        string memory _image\n    ) {\n        // Get Main Contract instance\n        mainContract = _mainContract;\n        MainContract = IMain(_mainContract);\n\n        // Get admin from Main Contract\n        admin = MainContract.getAdmin();\n        require(msg.sender == admin);\n\n        // Set info product and state of session\n        name = _name;\n        description = _description;\n        image = _image;\n        status = State.START;\n\n        // Call Main Contract function to link current contract.\n        MainContract.addSession(address(this));\n    }\n\n    /**\n     * @dev Change state of session to start. After that participant can pricing.\n     */\n    function startSession() public onlyAdmin {\n        require(status == State.START || status == State.STOP);\n        status = State.PRICING;\n    }\n\n    /**\n     * @dev Change state of session to stop. After that participant can not pricing , but admin can start session again.\n     */\n    function stopSession() public onlyAdmin instate(State.PRICING) {\n        status = State.STOP;\n    }\n\n    /**\n     * @dev Participant pricing product in session.\n     * @param _price Prire of product from participant.\n     */\n    function pricingSession(uint256 _price)\n        public\n        onlyParticipant\n        instate(State.PRICING)\n    {\n        require(_price > 0); // Price of product > 0\n        if (participants[msg.sender].account == address(0)) {\n            // First time participant join session\n            participants[msg.sender].account = msg.sender;\n            participants[msg.sender].price = _price;\n            iParticipants.push(msg.sender);\n        } else {\n            participants[msg.sender].price = _price;\n        }\n    }\n\n    /**\n     * @dev Change state of session to close. After that caculate proposed price of product,\n     * Caculate deviaton of participants in session,\n     * Update nSessions and deviation of participant in Main Contract.\n     * When closed session participant can not pricing and admin can not start session again.\n     * @param _finalprice Final prire of product from admin.\n     */\n    function closeSession(uint256 _finalprice) public onlyAdmin {\n        require(status == State.PRICING || status == State.STOP);\n        require(_finalprice > 0);\n        finalPrice = _finalprice;\n        status = State.CLOSE;\n        setProposedPrice(); // Caculate proposed price of product.\n        setDeviations(); // Caculate deviaton of participants in session.\n        updateParticipants(); // Update nSessions and deviation of participants in Main Contract.\n    }\n\n    /**\n     * @dev Caculate proposed price of product.\n     */\n    function setProposedPrice() private {\n        if (iParticipants.length == 0) {\n            // When session don't have any participant join.\n            proposedPrice = finalPrice;\n        } else {\n            uint256 valuePDs = sumPDs();\n            uint256 valueDs = sumDeviations();\n            proposedPrice = valuePDs / (100 * iParticipants.length - valueDs);\n        }\n    }\n\n    /**\n     * @dev Caculate deviaton of participants in session.\n     */\n    function setDeviations() private {\n        address addr;\n        uint256 participantPrice;\n        for (uint256 i = 0; i < iParticipants.length; i++) {\n            addr = iParticipants[i];\n            participantPrice = participants[addr].price;\n            if (finalPrice >= participantPrice) {\n                participants[addr].deviation = methodD(\n                    finalPrice,\n                    participantPrice,\n                    finalPrice\n                );\n            } else {\n                participants[addr].deviation = methodD(\n                    participantPrice,\n                    finalPrice,\n                    finalPrice\n                );\n            }\n        }\n    }\n\n    /**\n     * @dev Update nSessions and deviation of participant in Main Contract.\n     */\n    function updateParticipants() private {\n        address addr;\n        uint256 newDeviation;\n        for (uint256 i = 0; i < iParticipants.length; i++) {\n            addr = iParticipants[i];\n            newDeviation = participants[addr].deviation;\n            MainContract.updateParticipant(addr, newDeviation);\n        }\n    }\n\n    function sumDeviations() private view returns (uint256) {\n        uint256 sum = 0;\n        address addrParticipant;\n        for (uint256 i = 0; i < iParticipants.length; i++) {\n            addrParticipant = iParticipants[i];\n            sum += MainContract.getDeviation(addrParticipant);\n        }\n        return sum;\n    }\n\n    function methodPD(uint256 _A, uint256 _B) private pure returns (uint256) {\n        return _A * (100 - _B);\n    }\n\n    function sumPDs() private view returns (uint256) {\n        uint256 sum = 0;\n        address addr;\n        uint256 priceI;\n        uint256 deviationI;\n\n        for (uint256 i = 0; i < iParticipants.length; i++) {\n            addr = iParticipants[i];\n            priceI = participants[addr].price;\n            deviationI = MainContract.getDeviation(addr);\n            sum += methodPD(priceI, deviationI);\n        }\n        return sum;\n    }\n\n    function methodD(\n        uint256 _A,\n        uint256 _B,\n        uint256 _C\n    ) private pure returns (uint256) {\n        return ((_A - _B) * 100) / _C;\n    }\n}\n",
  "sourcePath": "C:\\Users\\John\\Desktop\\BDP305x_FinalProject_nguyenlvFX01383@funix.edu.vn\\FunixPricingChain\\truffle\\contracts\\Session.sol",
  "compiler": {
    "name": "solc",
    "version": "0.8.18+commit.87f61d96.Emscripten.clang"
  },
  "schemaVersion": "3.4.11",
  "updatedAt": "2023-02-13T19:50:57.498Z",
  "devdoc": {
    "kind": "dev",
    "methods": {
      "addSession(address)": {
        "details": "Add a Session Contract address into Main Contract. Use to link Session with Main.",
        "params": {
          "_session": "The address of session."
        }
      },
      "getAccount(address)": {
        "details": "Get account of participant.",
        "params": {
          "_participant": "Address of participant."
        }
      },
      "getAdmin()": {
        "details": "Get address of admin."
      },
      "getDeviation(address)": {
        "details": "Get deviation of participant in Main Contract.",
        "params": {
          "_participant": "Address of participant."
        }
      },
      "updateParticipant(address,uint256)": {
        "details": "Update nSessions and deviation of participant in Main Contract when close session.",
        "params": {
          "_deviation": "Deviation of participant in session.",
          "_participant": "Address of participant."
        }
      }
    },
    "version": 1
  },
  "userdoc": {
    "kind": "user",
    "methods": {},
    "version": 1
  }
}