{
  "contractName": "Main",
  "abi": [
    {
      "inputs": [],
      "stateMutability": "nonpayable",
      "type": "constructor"
    },
    {
      "inputs": [],
      "name": "admin",
      "outputs": [
        {
          "internalType": "address",
          "name": "",
          "type": "address"
        }
      ],
      "stateMutability": "view",
      "type": "function",
      "constant": true
    },
    {
      "inputs": [
        {
          "internalType": "uint256",
          "name": "",
          "type": "uint256"
        }
      ],
      "name": "iParticipants",
      "outputs": [
        {
          "internalType": "address",
          "name": "",
          "type": "address"
        }
      ],
      "stateMutability": "view",
      "type": "function",
      "constant": true
    },
    {
      "inputs": [],
      "name": "nParticipants",
      "outputs": [
        {
          "internalType": "uint256",
          "name": "",
          "type": "uint256"
        }
      ],
      "stateMutability": "view",
      "type": "function",
      "constant": true
    },
    {
      "inputs": [],
      "name": "nSessions",
      "outputs": [
        {
          "internalType": "uint256",
          "name": "",
          "type": "uint256"
        }
      ],
      "stateMutability": "view",
      "type": "function",
      "constant": true
    },
    {
      "inputs": [
        {
          "internalType": "address",
          "name": "",
          "type": "address"
        }
      ],
      "name": "participants",
      "outputs": [
        {
          "internalType": "address",
          "name": "account",
          "type": "address"
        },
        {
          "internalType": "string",
          "name": "fullname",
          "type": "string"
        },
        {
          "internalType": "string",
          "name": "email",
          "type": "string"
        },
        {
          "internalType": "uint256",
          "name": "nSessions",
          "type": "uint256"
        },
        {
          "internalType": "uint256",
          "name": "deviation",
          "type": "uint256"
        }
      ],
      "stateMutability": "view",
      "type": "function",
      "constant": true
    },
    {
      "inputs": [
        {
          "internalType": "uint256",
          "name": "",
          "type": "uint256"
        }
      ],
      "name": "sessions",
      "outputs": [
        {
          "internalType": "address",
          "name": "",
          "type": "address"
        }
      ],
      "stateMutability": "view",
      "type": "function",
      "constant": true
    },
    {
      "inputs": [
        {
          "internalType": "address",
          "name": "_session",
          "type": "address"
        }
      ],
      "name": "addSession",
      "outputs": [],
      "stateMutability": "nonpayable",
      "type": "function"
    },
    {
      "inputs": [
        {
          "internalType": "string",
          "name": "_fullname",
          "type": "string"
        },
        {
          "internalType": "string",
          "name": "_email",
          "type": "string"
        }
      ],
      "name": "register",
      "outputs": [],
      "stateMutability": "nonpayable",
      "type": "function"
    },
    {
      "inputs": [
        {
          "internalType": "address",
          "name": "_participant",
          "type": "address"
        },
        {
          "internalType": "uint256",
          "name": "_deviation",
          "type": "uint256"
        }
      ],
      "name": "updateParticipant",
      "outputs": [],
      "stateMutability": "nonpayable",
      "type": "function"
    },
    {
      "inputs": [
        {
          "internalType": "address",
          "name": "_participant",
          "type": "address"
        }
      ],
      "name": "getDeviation",
      "outputs": [
        {
          "internalType": "uint256",
          "name": "",
          "type": "uint256"
        }
      ],
      "stateMutability": "view",
      "type": "function",
      "constant": true
    },
    {
      "inputs": [
        {
          "internalType": "address",
          "name": "_participant",
          "type": "address"
        }
      ],
      "name": "getAccount",
      "outputs": [
        {
          "internalType": "address",
          "name": "",
          "type": "address"
        }
      ],
      "stateMutability": "view",
      "type": "function",
      "constant": true
    },
    {
      "inputs": [],
      "name": "getAdmin",
      "outputs": [
        {
          "internalType": "address",
          "name": "",
          "type": "address"
        }
      ],
      "stateMutability": "view",
      "type": "function",
      "constant": true
    }
  ],
  "bytecode": "0x608060405234801561001057600080fd5b50336000806101000a81548173ffffffffffffffffffffffffffffffffffffffff021916908373ffffffffffffffffffffffffffffffffffffffff160217905550611322806100606000396000f3fe608060405234801561001057600080fd5b50600436106100b45760003560e01c8063a33a08b911610071578063a33a08b914610191578063a3b9c9e5146101c1578063b63bc3b4146101f1578063f390dd861461020f578063f851a4401461022b578063fbcbc0f114610249576100b4565b806309e69ede146100b95780633ffbd47f146100ed578063454eed7d1461010957806349847c7a146101275780636e9960c31461014357806383c4b7a314610161575b600080fd5b6100d360048036038101906100ce9190610aff565b610279565b6040516100e4959493929190610be4565b60405180910390f35b61010760048036038101906101029190610d7a565b6103df565b005b610111610666565b60405161011e9190610df2565b60405180910390f35b610141600480360381019061013c9190610e39565b61066c565b005b61014b610801565b6040516101589190610e79565b60405180910390f35b61017b60048036038101906101769190610e94565b61082a565b6040516101889190610e79565b60405180910390f35b6101ab60048036038101906101a69190610aff565b610869565b6040516101b89190610df2565b60405180910390f35b6101db60048036038101906101d69190610e94565b6108b5565b6040516101e89190610e79565b60405180910390f35b6101f96108f4565b6040516102069190610df2565b60405180910390f35b61022960048036038101906102249190610aff565b6108fa565b005b6102336109c4565b6040516102409190610e79565b60405180910390f35b610263600480360381019061025e9190610aff565b6109e8565b6040516102709190610e79565b60405180910390f35b60036020528060005260406000206000915090508060000160009054906101000a900473ffffffffffffffffffffffffffffffffffffffff16908060010180546102c290610ef0565b80601f01602080910402602001604051908101604052809291908181526020018280546102ee90610ef0565b801561033b5780601f106103105761010080835404028352916020019161033b565b820191906000526020600020905b81548152906001019060200180831161031e57829003601f168201915b50505050509080600201805461035090610ef0565b80601f016020809104026020016040519081016040528092919081815260200182805461037c90610ef0565b80156103c95780601f1061039e576101008083540402835291602001916103c9565b820191906000526020600020905b8154815290600101906020018083116103ac57829003601f168201915b5050505050908060030154908060040154905085565b60008054906101000a900473ffffffffffffffffffffffffffffffffffffffff1673ffffffffffffffffffffffffffffffffffffffff163373ffffffffffffffffffffffffffffffffffffffff160361043757600080fd5b600073ffffffffffffffffffffffffffffffffffffffff16600360003373ffffffffffffffffffffffffffffffffffffffff1673ffffffffffffffffffffffffffffffffffffffff16815260200190815260200160002060000160009054906101000a900473ffffffffffffffffffffffffffffffffffffffff1673ffffffffffffffffffffffffffffffffffffffff16146104d257600080fd5b33600360003373ffffffffffffffffffffffffffffffffffffffff1673ffffffffffffffffffffffffffffffffffffffff16815260200190815260200160002060000160006101000a81548173ffffffffffffffffffffffffffffffffffffffff021916908373ffffffffffffffffffffffffffffffffffffffff16021790555081600360003373ffffffffffffffffffffffffffffffffffffffff1673ffffffffffffffffffffffffffffffffffffffff16815260200190815260200160002060010190816105a291906110cd565b5080600360003373ffffffffffffffffffffffffffffffffffffffff1673ffffffffffffffffffffffffffffffffffffffff16815260200190815260200160002060020190816105f291906110cd565b506002339080600181540180825580915050600190039060005260206000200160009091909190916101000a81548173ffffffffffffffffffffffffffffffffffffffff021916908373ffffffffffffffffffffffffffffffffffffffff1602179055506002805490506001819055505050565b60045481565b60008054906101000a900473ffffffffffffffffffffffffffffffffffffffff1673ffffffffffffffffffffffffffffffffffffffff163273ffffffffffffffffffffffffffffffffffffffff16146106c457600080fd5b6000600360008473ffffffffffffffffffffffffffffffffffffffff1673ffffffffffffffffffffffffffffffffffffffff1681526020019081526020016000206004015490506000600360008573ffffffffffffffffffffffffffffffffffffffff1673ffffffffffffffffffffffffffffffffffffffff16815260200190815260200160002060030154905061075d828483610a54565b600360008673ffffffffffffffffffffffffffffffffffffffff1673ffffffffffffffffffffffffffffffffffffffff16815260200190815260200160002060040181905550600360008573ffffffffffffffffffffffffffffffffffffffff1673ffffffffffffffffffffffffffffffffffffffff16815260200190815260200160002060030160008154809291906107f6906111ce565b919050555050505050565b60008060009054906101000a900473ffffffffffffffffffffffffffffffffffffffff16905090565b6005818154811061083a57600080fd5b906000526020600020016000915054906101000a900473ffffffffffffffffffffffffffffffffffffffff1681565b6000600360008373ffffffffffffffffffffffffffffffffffffffff1673ffffffffffffffffffffffffffffffffffffffff168152602001908152602001600020600401549050919050565b600281815481106108c557600080fd5b906000526020600020016000915054906101000a900473ffffffffffffffffffffffffffffffffffffffff1681565b60015481565b60008054906101000a900473ffffffffffffffffffffffffffffffffffffffff1673ffffffffffffffffffffffffffffffffffffffff163273ffffffffffffffffffffffffffffffffffffffff161461095257600080fd5b6005819080600181540180825580915050600190039060005260206000200160009091909190916101000a81548173ffffffffffffffffffffffffffffffffffffffff021916908373ffffffffffffffffffffffffffffffffffffffff16021790555060058054905060048190555050565b60008054906101000a900473ffffffffffffffffffffffffffffffffffffffff1681565b6000600360008373ffffffffffffffffffffffffffffffffffffffff1673ffffffffffffffffffffffffffffffffffffffff16815260200190815260200160002060000160009054906101000a900473ffffffffffffffffffffffffffffffffffffffff169050919050565b6000600182610a639190611216565b838386610a70919061124a565b610a7a9190611216565b610a8491906112bb565b90509392505050565b6000604051905090565b600080fd5b600080fd5b600073ffffffffffffffffffffffffffffffffffffffff82169050919050565b6000610acc82610aa1565b9050919050565b610adc81610ac1565b8114610ae757600080fd5b50565b600081359050610af981610ad3565b92915050565b600060208284031215610b1557610b14610a97565b5b6000610b2384828501610aea565b91505092915050565b610b3581610ac1565b82525050565b600081519050919050565b600082825260208201905092915050565b60005b83811015610b75578082015181840152602081019050610b5a565b60008484015250505050565b6000601f19601f8301169050919050565b6000610b9d82610b3b565b610ba78185610b46565b9350610bb7818560208601610b57565b610bc081610b81565b840191505092915050565b6000819050919050565b610bde81610bcb565b82525050565b600060a082019050610bf96000830188610b2c565b8181036020830152610c0b8187610b92565b90508181036040830152610c1f8186610b92565b9050610c2e6060830185610bd5565b610c3b6080830184610bd5565b9695505050505050565b600080fd5b600080fd5b7f4e487b7100000000000000000000000000000000000000000000000000000000600052604160045260246000fd5b610c8782610b81565b810181811067ffffffffffffffff82111715610ca657610ca5610c4f565b5b80604052505050565b6000610cb9610a8d565b9050610cc58282610c7e565b919050565b600067ffffffffffffffff821115610ce557610ce4610c4f565b5b610cee82610b81565b9050602081019050919050565b82818337600083830152505050565b6000610d1d610d1884610cca565b610caf565b905082815260208101848484011115610d3957610d38610c4a565b5b610d44848285610cfb565b509392505050565b600082601f830112610d6157610d60610c45565b5b8135610d71848260208601610d0a565b91505092915050565b60008060408385031215610d9157610d90610a97565b5b600083013567ffffffffffffffff811115610daf57610dae610a9c565b5b610dbb85828601610d4c565b925050602083013567ffffffffffffffff811115610ddc57610ddb610a9c565b5b610de885828601610d4c565b9150509250929050565b6000602082019050610e076000830184610bd5565b92915050565b610e1681610bcb565b8114610e2157600080fd5b50565b600081359050610e3381610e0d565b92915050565b60008060408385031215610e5057610e4f610a97565b5b6000610e5e85828601610aea565b9250506020610e6f85828601610e24565b9150509250929050565b6000602082019050610e8e6000830184610b2c565b92915050565b600060208284031215610eaa57610ea9610a97565b5b6000610eb884828501610e24565b91505092915050565b7f4e487b7100000000000000000000000000000000000000000000000000000000600052602260045260246000fd5b60006002820490506001821680610f0857607f821691505b602082108103610f1b57610f1a610ec1565b5b50919050565b60008190508160005260206000209050919050565b60006020601f8301049050919050565b600082821b905092915050565b600060088302610f837fffffffffffffffffffffffffffffffffffffffffffffffffffffffffffffffff82610f46565b610f8d8683610f46565b95508019841693508086168417925050509392505050565b6000819050919050565b6000610fca610fc5610fc084610bcb565b610fa5565b610bcb565b9050919050565b6000819050919050565b610fe483610faf565b610ff8610ff082610fd1565b848454610f53565b825550505050565b600090565b61100d611000565b611018818484610fdb565b505050565b5b8181101561103c57611031600082611005565b60018101905061101e565b5050565b601f8211156110815761105281610f21565b61105b84610f36565b8101602085101561106a578190505b61107e61107685610f36565b83018261101d565b50505b505050565b600082821c905092915050565b60006110a460001984600802611086565b1980831691505092915050565b60006110bd8383611093565b9150826002028217905092915050565b6110d682610b3b565b67ffffffffffffffff8111156110ef576110ee610c4f565b5b6110f98254610ef0565b611104828285611040565b600060209050601f8311600181146111375760008415611125578287015190505b61112f85826110b1565b865550611197565b601f19841661114586610f21565b60005b8281101561116d57848901518255600182019150602085019450602081019050611148565b8683101561118a5784890151611186601f891682611093565b8355505b6001600288020188555050505b505050505050565b7f4e487b7100000000000000000000000000000000000000000000000000000000600052601160045260246000fd5b60006111d982610bcb565b91507fffffffffffffffffffffffffffffffffffffffffffffffffffffffffffffffff820361120b5761120a61119f565b5b600182019050919050565b600061122182610bcb565b915061122c83610bcb565b92508282019050808211156112445761124361119f565b5b92915050565b600061125582610bcb565b915061126083610bcb565b925082820261126e81610bcb565b915082820484148315176112855761128461119f565b5b5092915050565b7f4e487b7100000000000000000000000000000000000000000000000000000000600052601260045260246000fd5b60006112c682610bcb565b91506112d183610bcb565b9250826112e1576112e061128c565b5b82820490509291505056fea264697066735822122085560f7a00c772cadd287153339868a8ff35a08336fd943fac6c931b992b32ae64736f6c63430008120033",
  "immutableReferences": {},
  "source": "// SPDX-License-Identifier: GPL-3.0\n\npragma solidity ^0.8.17;\n\ncontract Main {\n    // Structure to hold details of participant in Main Contract\n    struct Participant {\n        address account; // Account of participant\n        string fullname; // Name of participant\n        string email; // Mail of participant\n        uint256 nSessions; // Number sessions. Participant joined\n        uint256 deviation; // Deviation of participant in all sessions\n    }\n\n    address public admin; // Admin create Main Contract\n    uint256 public nParticipants; // Total participants registered\n    address[] public iParticipants; // List address participants\n    mapping(address => Participant) public participants; // List info of participants\n    uint256 public nSessions; // Total sessions created\n    address[] public sessions; // List address sessions\n\n    /**\n     * @dev constructor.\n     */\n    constructor() {\n        admin = msg.sender; // Set admin\n    }\n\n    /**\n     * @dev Add a Session Contract address into Main Contract. Use to link Session with Main.\n     * @param _session The address of session.\n     */\n    function addSession(address _session) public {\n        require(tx.origin == admin); // Only admin add session\n        sessions.push(_session);\n        nSessions = sessions.length;\n    }\n\n    /**\n     * @dev Register a participant.\n     * @param _fullname Name of participant.\n     * @param _email Mail of participant.\n     */\n    function register(string memory _fullname, string memory _email) public {\n        require(msg.sender != admin); // Only participant can register\n        require(participants[msg.sender].account == address(0)); // Check participant registered\n        participants[msg.sender].account = msg.sender;\n        participants[msg.sender].fullname = _fullname;\n        participants[msg.sender].email = _email;\n        iParticipants.push(msg.sender);\n        nParticipants = iParticipants.length;\n    }\n\n    /**\n     * @dev Update nSessions and deviation of participant in Main Contract when close session.\n     * @param _participant Address of participant.\n     * @param _deviation Deviation of participant in session.\n     */\n    function updateParticipant(address _participant, uint256 _deviation)\n        public\n    {\n        require(tx.origin == admin); // Only admin can update\n        uint256 oldDeviation = participants[_participant].deviation;\n        uint256 valueNSessions = participants[_participant].nSessions;\n\n        participants[_participant].deviation = methodD(\n            oldDeviation,\n            _deviation,\n            valueNSessions\n        );\n\n        participants[_participant].nSessions++;\n    }\n\n    /**\n     * @dev Get deviation of participant in Main Contract.\n     * @param _participant Address of participant.\n     */\n    function getDeviation(address _participant) public view returns (uint256) {\n        return participants[_participant].deviation;\n    }\n\n    /**\n     * @dev Get account of participant.\n     * @param _participant Address of participant.\n     */\n    function getAccount(address _participant) public view returns (address) {\n        return participants[_participant].account;\n    }\n\n    /**\n     * @dev Get address of admin.\n     */\n    function getAdmin() public view returns (address) {\n        return admin;\n    }\n\n    function methodD(\n        uint256 _A,\n        uint256 _B,\n        uint256 _C\n    ) private pure returns (uint256) {\n        return (_A * _C + _B) / (_C + 1);\n    }\n}\n",
  "sourcePath": "C:\\Users\\John\\Desktop\\BDP305x_FinalProject_nguyenlvFX01383@funix.edu.vn\\FunixPricingChain\\truffle\\contracts\\Main.sol",
  "compiler": {
    "name": "solc",
    "version": "0.8.18+commit.87f61d96.Emscripten.clang"
  },
  "schemaVersion": "3.4.11",
  "updatedAt": "2023-02-13T19:51:02.593Z",
  "networkType": "ethereum",
  "devdoc": {
    "kind": "dev",
    "methods": {
      "addSession(address)": {
        "details": "Add a Session Contract address into Main Contract. Use to link Session with Main.",
        "params": {
          "_session": "The address of session."
        }
      },
      "constructor": {
        "details": "constructor."
      },
      "getAccount(address)": {
        "details": "Get account of participant.",
        "params": {
          "_participant": "Address of participant."
        }
      },
      "getAdmin()": {
        "details": "Get address of admin."
      },
      "getDeviation(address)": {
        "details": "Get deviation of participant in Main Contract.",
        "params": {
          "_participant": "Address of participant."
        }
      },
      "register(string,string)": {
        "details": "Register a participant.",
        "params": {
          "_email": "Mail of participant.",
          "_fullname": "Name of participant."
        }
      },
      "updateParticipant(address,uint256)": {
        "details": "Update nSessions and deviation of participant in Main Contract when close session.",
        "params": {
          "_deviation": "Deviation of participant in session.",
          "_participant": "Address of participant."
        }
      }
    },
    "version": 1
  },
  "userdoc": {
    "kind": "user",
    "methods": {},
    "version": 1
  }
}